:020000040000FA
:1000000002110F4401C20203060900020B1112146F
:10001000B51214D2120E7C12121A1213D512138EAC
:0200200022328A
:10002300020026C0E0C083C082C0D075D000C006E5
:10003300C007309904C299D20430983E900198E0E9
:10004300FEA3E0FF74292FF58274013EF583E59941
:10005300F0900199E004F07006900198E004F090AC
:100063000198E0FEA3E0FFC3EF9432EE6480948036
:100073004008900198E4F0A3E4F0D007D006D0D074
:10008300D082D083D0E0321209BA12119E92032299
:070093007597DE7597AD22A1
:10009B0002002190019EE0FEA3E0FFC3EF94C4EEAB
:1000AB009409503B90010AE0FEA3E0FFD3EF9400CC
:1000BB00EE64809480402890010FE004F07006906D
:1000CB00010EE004F090010EE0FEA3E0FFD3EF94ED
:1000DB000AEE64809480400F121485D292800890AF
:1000EB00010EE4F0A3E4F090010AE0FEA3E0FFEFC1
:1000FB008EF0120D4101200000015A000101BA00DF
:10010B0002023E000302C30004038D0005045000ED
:10011B00060000048B90019EE0FEA3E0FFD3EF945A
:10012B0094EE9411500302048B900196E4F0A374A7
:10013B0019F0C2B1D29290010AE4F0A37401F07BE2
:10014B00FF7A15791C7D0B7C00120FE102048B905A
:10015B000196E0FEA3E0FFEF4E600302048B9001DB
:10016B00A27401F09001A374FFF07B017A0179A2D4
:10017B007D027C0012084990010CE0FEA3E0FF7C9D
:10018B00007D04120CCFEF240AFFEE3400FE900129
:10019B0096EEF0A3EFF090010AE4F0A37402F07B6B
:1001AB00FF7A1579287D0B7C00120FE102048B90EE
:1001BB000196E0FEA3E0FFEF4E600302048B90017B
:1001CB00A27471F09001A37411F09001A47410F05B
:1001DB009001A57420F09001A67401F09001A77412
:1001EB0002F09001A87403F09001A97404F07B0154
:1001FB007A0179A27D087C0012084990010CE0FE7F
:10020B00A3E0FF7C007D04120CCFEF240AFFEE3439
:10021B0000FE900196EEF0A3EFF090010AE4F0A33C
:10022B007403F07BFF7A1579347D0B7C00120FE1A0
:10023B0002048B900196E0FEA3E0FFEF4E600302F9
:10024B00048B9001A27451F09001A3740AF09001F9
:10025B00A4E4F09001A5E4F09001A67443F09001A2
:10026B00A7E4F07B017A0179A27D067C0012084994
:10027B0090010CE0FEA3E0FF7C007D04120CCFEF9D
:10028B00240AFFEE3400FE900196EEF0A3EFF090FF
:10029B000106E4F0A3E4F0900108E4F0A3E4F0908D
:1002AB00010AE4F0A37404F07BFF7A1579407D0B0F
:1002BB007C00120FE102048B900196E0FEA3E0FF9D
:1002CB00EF4E600302048B9001ACE4F09001ADE4BF
:1002DB00F0A3E4F090019EE0FEA3E0FFC374509FF7
:1002EB00FF74469EFE9001ADEEF0A3EFF09001ADD2
:1002FB00E0FEA3E0FFD3EF94E8EE64809483400626
:10030B009001AC7401F09001ADE0FEA3E0FFC3EFF0
:10031B0094E8EE6480948350069001AC74FFF090E7
:10032B0001A27403F09001ACE0FF9001A3EFF07B0E
:10033B00017A0179A27D027C00120849900196E4B2
:10034B00F0A37464F0900107E004F07006900106CE
:10035B00E004F0900106E0FEA3E0FFD3EF9407EE7C
:10036B0064809480500302048B90010AE4F0A37420
:10037B0005F07BFF7A15794C7D0B7C00120FE102A7
:10038B00048B900196E0FEA3E0FFEF4E60030204A6
:10039B008B9001A27404F09001A37480F07B017A1E
:1003AB000179A27D027C00120849900196E4F0A32A
:1003BB007464F0900106E4F0A3E4F0900191E0FE88
:1003CB00A3E0FFD3EF94F8EE94114002C292900198
:1003DB000AE4F0A37404F0900118E0FEA3E0FFD34D
:1003EB00EF9436EE94104053900191E0FEA3E0FFA2
:1003FB00C3EF943CEE94005042900109E004F0707E
:10040B0006900108E004F0900108E0FEA3E0FFD3A2
:10041B00EF9405EE648094804066900196E4F0A31F
:10042B007464F090010AE4F0A37406F07BFF7A1574
:10043B0079587D0B7C00120FE18045900108E4F0A8
:10044B00A3E4F0803B900196E0FEA3E0FFEF4E703B
:10045B002F9001A27402F09001A37401F07B017A3A
:10046B000179A27D027C00120849900196E4F0A369
:10047B0074C8F07BFF7A1579647D0B7C00120FE159
:10048B0020012690010AE0FEA3E0FFD3EF9400EEDB
:10049B0064809480401690010AE0FEA3E0FFC3EF56
:1004AB009404EE648094805003D20022C200229008
:1004BB0001D1EFF09001D2EDF09001D3EBF0900170
:1004CB00D2E0FFA8077401088002C333D8FCFF9069
:1004DB0001D4EFF09001D1E0FFEF120D1B04F800F7
:1004EB0005710105EA02066303000006D19001D3F2
:1004FB00E0FFEF120D1B050E000523010540020066
:10050B000005689001D4E0FFEFF4FFEF52F190018A
:10051B00D4E0FFEF428080459001D4E0FFEF42F141
:10052B009001D4E0FFEF42809001D4E0FFEFF4FFA5
:10053B00EF52A480289001D4E0FFEF42F130070A7C
:10054B009001D4E0FFEF4280800B9001D4E0FFEFED
:10055B00F4FFEF52809001D4E0FFEF42A49001D45E
:10056B00E0FFEF42D4229001D3E0FFEF120D1B0509
:10057B008700059C0105B902000005E19001D4E05C
:10058B00FFEFF4FFEF52F29001D4E0FFEF429080C7
:10059B00459001D4E0FFEF42F29001D4E0FFEF422F
:1005AB00909001D4E0FFEFF4FFEF52A5802890016B
:1005BB00D4E0FFEF42F230070A9001D4E0FFEF42A4
:1005CB0090800B9001D4E0FFEFF4FFEF529090017D
:1005DB00D4E0FFEF42A59001D4E0FFEF42D522908B
:1005EB0001D3E0FFEF120D1B0600000615010632CA
:1005FB00020000065A9001D4E0FFEFF4FFEF52F334
:10060B009001D4E0FFEF42A080459001D4E0FFEFD2
:10061B0042F39001D4E0FFEF42A09001D4E0FFEF52
:10062B00F4FFEF52A680289001D4E0FFEF42F330A5
:10063B00070A9001D4E0FFEF42A0800B9001D4E0B9
:10064B00FFEFF4FFEF52A09001D4E0FFEF42A69032
:10065B0001D4E0FFEF42CC229001D3E0FFEF120D6B
:10066B001B067900068D0106A902000006D1900138
:10067B00D4E0FFEFF4FFEF52F49001D4E0FFEF4230
:10068B00B0229001D4E0FFEF42F49001D4E0FFEFF1
:10069B0042B09001D4E0FFEFF4FFEF529C229001A7
:1006AB00D4E0FFEF42F430070A9001D4E0FFEF42B1
:1006BB00B0800B9001D4E0FFEFF4FFEF52B090014C
:1006CB00D4E0FFEF429C229001D5EFF09001D8E4EB
:1006DB00F0B202A202E433FF90010CE475F00112B8
:1006EB000D05ADF0FC74042DF58274003CF583EF21
:1006FB00F0A202E433FF90010CE475F001120D053A
:10070B00ADF0FC74042DF58274003CF583EFF09092
:10071B0001D6E4F0A3E4F09001D6E0FEA3E0FFC322
:10072B00EF9408EE6480948040030207B9B202A2F2
:10073B0002E433FF90010CE475F001120D05ADF0EE
:10074B00FC74042DF58274003CF583EFF09001D618
:10075B00E0FEA3E0FF7E007401A807088005C33309
:10076B00CE33CED8F9FF9001D5E0FD7C00EE5CFED8
:10077B00EF5DFFEF4E60089001D8E004F0B202A2EB
:10078B0002E433FF90010CE475F001120D05ADF09E
:10079B00FC74042DF58274003CF583EFF09001D7C7
:1007AB00E004F070069001D6E004F0020722B202DA
:1007BB00A202E433FF90010CE475F001120D05ADBC
:1007CB00F0FC74042DF58274003CF583EFF090017E
:1007DB00D8E0FFEF5401FF7E00EF4E7002B202A291
:1007EB0002E433FF90010CE475F001120D05ADF03E
:1007FB00FC74042DF58274003CF583EFF0B202A279
:10080B0002E433FF90010CE475F001120D05ADF01D
:10081B00FC74042DF58274003CF583EFF0B202A258
:10082B0002E433FF90010CE475F001120D05ADF0FD
:10083B00FC74042DF58274003CF583EFF0229001DB
:10084B00B7EBF0A3EAF0A3E9F09001BAECF0A3ED5B
:10085B00F09001BEE4F03001030209B990010CE401
:10086B00F0A3E4F0900110E4F0A3E4F09001BCE4F9
:10087B00F0A3E4F09001BCE0FEA3E0FFC3EF941003
:10088B00EE64809480504390010CE475F001120DDE
:10089B0005AFF0FE74042FF58274003EF5837401EE
:1008AB00F090010CE475F001120D05AFF0FE74042D
:1008BB002FF58274003EF583E4F09001BDE004F067
:1008CB0070069001BCE004F080AAC2029001BCE467
:1008DB00F0A3E4F09001BAE0FEA3E0FF9001BCE0CE
:1008EB00FCA3E0FDC3ED9FEE6480F8EC64809850B0
:1008FB00569001B7E0FBA3E0FAA3E0F99001BCE04E
:10090B00FEA3E0FF8F828E83120C4DFF1206D29056
:10091B0001BEE0FF9001B7E0FBA3E0FAA3E0F99082
:10092B0001BCE0FCA3E0FD8D828C83120C4DFEEF2D
:10093B006EFF9001BEEFF09001BDE004F0700690E9
:10094B0001BCE004F0808D9001BEE0FF1206D29056
:10095B00010CE475F001120D05AFF0FE74042FF5D8
:10096B008274003EF583E4F09001BCE4F0A3E4F064
:10097B009001BCE0FEA3E0FFC3EF9405EE6480940E
:10098B0080502990010CE475F001120D05AFF0FEBB
:10099B0074042FF58274003EF583E4F09001BDE002
:1009AB0004F070069001BCE004F080C4D201222058
:1009BB00ED03020ACB300603020AC2300503020A1A
:1009CB00C2AFBE7E00EF7F00FEADBD7C00EE4CFEE5
:1009DB00EF4DFF9001DDEEF0A3EFF09001BFE0FFD4
:1009EB00EF120D1B09FF000A18010A3C020A7803DB
:1009FB0000000A8F9001DDE0FEA3E0FFEF25E0FF92
:100A0B00EE33FE90019EEEF0A3EFF080779001DDC8
:100A1B00E0FEA3E0FFEF7802C333CE33CED8F9FF6D
:100A2B007C007D37120C7A900191EEF0A3EFF080F1
:100A3B00533087199001DDE0FEA3E0FF7C007D05BC
:100A4B00120C7A900118EEF0A3EFF080379001DDD5
:100A5B00E0FEA3E0FFEF25E0FFEE33FE7C007D051B
:100A6B00120C7A900118EEF0A3EFF080179001DDD5
:100A7B00E0FEA3E0FF7C007D05120C7A90018DEE69
:100A8B00F0A3EFF09001BFE004F09001BFE0FF7E18
:100A9B0000C3EF9404EE6480948040059001BFE4A2
:100AAB00F09001BFE0FF74C22FF582E43401F583AF
:100ABB00E0FF8FBBD20522C2EDD2ECC205C20622EB
:100ACB009001C1E004F070069001C0E004F09001C9
:100ADB00C0E0FEA3E0FFD3EF9402EE64809480406D
:100AEB0024D2ED9001BFE4F09001BFE0FF74C22F60
:100AFB00F582E43401F583E0FF8FBBD2069001C091
:100B0B00E4F0A3E4F022C0E0C0F0C083C082C0D008
:100B1B0075D000C000C004C005C006C007C28D75EB
:100B2B008CD1758A2030014390010CE0FEA3E0FFCD
:100B3B00900110E0FCA3E0FDC3ED9FEE6480F8ECA8
:100B4B006480985024900110E475F001120D05AFEC
:100B5B00F0FE74042FF58274003EF583E0FFEF6026
:100B6B0004D2818006C2818002C2019001DBE0FECB
:100B7B00A3E0FFEF4E60119001DCE024FFF0900149
:100B8B00DBE034FFF0020C389001DBE4F0A37403DC
:100B9B00F0900112E0FEA3E0FFEF4E600E90011308
:100BAB00E024FFF0900112E034FFF0900196E0FE9C
:100BBB00A3E0FFEF4E600E900197E024FFF0900151
:100BCB0096E034FFF0900114E0FEA3E0FFEF4E60DF
:100BDB000E900115E024FFF0900114E034FFF0902B
:100BEB000127E0FEA3E0FFEF4E600E900128E0240A
:100BFB00FFF0900127E034FFF0900116E0FEA3E038
:100C0B00FFEF4E600E900117E024FFF0900116E00D
:100C1B0034FFF0900125E0FEA3E0FFEF4E600E9055
:100C2B000126E024FFF0900125E034FFF0D007D03F
:100C3B0006D005D004D000D0D0D082D083D0F0D055
:100C4B00E032BB010CE58229F582E5833AF583E0BE
:100C5B00225006E92582F8E622BBFE06E92582F83A
:100C6B00E222E58229F582E5833AF583E49322BCFF
:100C7B00000BBE0029EF8DF084FFADF022E4CCF821
:100C8B0075F008EF2FFFEE33FEEC33FCEE9DEC9886
:100C9B004005FCEE9DFE0FD5F0E9E4CEFD22EDF80C
:100CAB00F5F0EE8420D21CFEADF075F008EF2FFFAF
:100CBB00ED33FD4007985006D5F0F222C398FD0F97
:100CCB00D5F0EA22C2D5EC30E709B2D5E4C39DFDDD
:100CDB00E49CFCEE30E715B2D5E4C39FFFE49EFE27
:100CEB00120C7AC3E49DFDE49CFC8003120C7A3059
:100CFB00D507C3E49FFFE49EFE22A3F8E0C5F025D1
:100D0B00F0F0E582158270021583E0C838F0E82216
:100D1B00D083D082F8E4937012740193700DA3A367
:100D2B0093F8740193F5828883E47374029368607B
:100D3B00EFA3A3A380DFD083D082F8E49370127467
:100D4B000193700DA3A393F8740193F5828883E448
:100D5B0073740293B5F0067403936860E9A3A3A3BD
:100D6B00A380D8900198E0FEA3E0FF90019CE0FCEB
:100D7B00A3E0FDED6F7002EC6E7003020E28900184
:100D8B00277413F0A37488F090019CE475F00112A2
:100D9B000D05AFF0FE74292FF58274013EF583E04B
:100DAB00FF900193E0FCA3E0FD741B2DF582740111
:100DBB003CF583EFF0900193E0FEA3E0FF741B2F53
:100DCB00F58274013EF583E0FFEF3395E0FEEF64AF
:100DDB000A4E700512141A800E900194E004F07004
:100DEB0006900193E004F090019CE0FEA3E0FFC3AA
:100DFB00EF9432EE64809480400890019CE4F0A361
:100E0B00E4F0900193E0FEA3E0FFC3EF940AEE64DD
:100E1B008094804008900193E4F0A3E4F090019A51
:100E2B00E0FEA3E0FF9001A0E0FCA3E0FDED6F70FE
:100E3B0002EC6E603B300438C2049001A0E475F004
:100E4B0001120D05AFF0FE745B2FF58274013EF5B8
:100E5B0083E0FF8F999001A0E0FEA3E0FFC3EF9426
:100E6B0032EE6480948040089001A0E4F0A3E4F09B
:100E7B00229001B1E5F1F09001B2E5A4F09001B33D
:100E8B00E580F09001B4E5D4F09001B5E5E1F09088
:100E9B0001B6E5E3F053E1FEC2077B007D047F0062
:100EAB001204BAC2077B027D027F011204BA43E32C
:100EBB004075BB04C2EDD2EC30EDFDAFBE7E00EF52
:100ECB007F00FEADBD7C00EE4CFEEF4DFF9001AF01
:100EDB00EEF0A3EFF0C2ED90011AE4F09001AFE059
:100EEB00FEA3E0FFC3EF948CEE943C50179001AF40
:100EFB00E0FEA3E0FFD3EF94A4EE943840069001FC
:100F0B001A7441F075BB1F9001B6E0FF8FE390019F
:100F1B00B5E0FF8FE19001B1E0FF8FF19001B2E0FE
:100F2B00FF8FA49001B3E0FF8F809001B4E0FF8F9F
:100F3B00D422300357900118E0FEA3E0FFC3EF94D7
:100F4B0036EE94104011900191E0FEA3E0FFD3EF39
:100F5B00943CEE94004022900191E0FCA3E0FD7ED6
:100F6B00097FC4120C7A9001CDEEF0A3EFF0900143
:100F7B00CFE4F0A374FAF080269001CDE4F0A374D3
:100F8B00FAF09001CFE4F0A3E4F080139001CDE4EC
:100F9B00F0A37405F09001CF7409F0A374C4F09022
:100FAB000112E0FEA3E0FFEF4E702A20002720B1D4
:100FBB00129001CFE0FEA3E0FF900112EEF0A3EF41
:100FCB00F080109001CDE0FEA3E0FF900112EEF057
:100FDB00A3EFF0B2B1229001C6EBF0A3EAF0A3E9C4
:100FEB00F09001C9ECF0A3EDF09001CBE4F0A3E499
:100FFB00F09001C9E0FEA3E0FF9001CBE0FCA3E081
:10100B00FDC3ED9FEE6480F8EC648098505F900117
:10101B00C6E0FBA3E0FAA3E0F99001CBE0FEA3E06E
:10102B00FF8F828E83120C4DFF90019AE475F001B5
:10103B00120D05ADF0FC745B2DF58274013CF5834C
:10104B00EFF090019AE0FEA3E0FFC3EF9432EE6461
:10105B00809480400890019AE4F0A3E4F09001CCD6
:10106B00E004F070069001CBE004F08084227BFF5B
:10107B007A1579707D0D7C00120FE190019AE0FEDC
:10108B00A3E0FF9001A0E0FCA3E0FDED6F7002EC8C
:10109B006E6005120D6E80E37F027E001214557593
:1010AB00FE0175FD01D287C29275A900E5A9548096
:1010BB00FF7E00EF4E60F5C2AF900195E5A7F0758E
:1010CB00A71075A50075A40075A700759A80759A71
:1010DB0000900195E0FF8FA775A903E5A95480FF48
:1010EB007E00EF4E60F512000E1214851212F07F87
:1010FB00197E001214557BFF7A15797E7D0C7C00CE
:10110B00120FE1221214E4787FE4F6D8FD758121E9
:10111B00021159021291E493A3F8E493A34003F64E
:10112B008001F208DFF48029E493A3F85407240C20
:10113B00C8C333C4540F4420C8834004F456800101
:10114B0046F6DFE4800B010204081020408090007B
:10115B0003E47E019360BCA3FF543F30E509541FA9
:10116B00FEE493A360010ECF54C025E060A840B805
:10117B00E493A3FAE493A3F8E493A3C8C582C8CA83
:10118B00C583CAF0A3C8C582C8CAC583CADFE9DE56
:10119B00E780BE308011900191E0FEA3E0FFD3EF1A
:1011AB00943CEE94004003D38001C39209900191CB
:1011BB00E0FEA3E0FFD3EF943CEE94004038308088
:1011CB0035900190E004F0700690018FE004F090F0
:1011DB00018FE0FEA3E0FFD3EF94E8EE9403401EF3
:1011EB00D29290018FE4F0A3E4F09001257401F00A
:1011FB00A374F4F0800890018FE4F0A3E4F0900165
:10120B0025E0FEA3E0FFEF4E7002C292A20922C2BC
:10121B00077B017D007F001204BAC2077B027D01B0
:10122B007F001204BAC2077B007D027F001204BA52
:10123B00C2077B007D037F001204BAC2077B007DCF
:10124B00067F001204BAC2077B017D077F001204E0
:10125B00BAC2077B027D007F011204BAC2077B0072
:10126B007D017F011204BAD2077B027D027F01123E
:10127B0004BA53B57FC2077B027D017F031204BA08
:10128B00C28743E3402212000E1214851212F07F24
:10129B00197E0012145512008A12009E120F3D1275
:1012AB000D6E7F017E0012145520031D90019EE0F0
:1012BB00FEA3E0FFD3EF9464EE9400500C90012753
:1012CB00E0FEA3E0FFEF4E600A9001167475F0A3E9
:1012DB007430F0900116E0FEA3E0FFEF4E70B712F2
:1012EB00107980B222900112E4F0A3E4F090011681
:1012FB007475F0A37430F0900125E4F0A3E4F09042
:10130B0001277413F0A37488F0C20390018FE4F0EB
:10131B00A3E4F090019EE4F0A3E4F0900191E4F0DB
:10132B00A3E4F0900118E4F0A3E4F090018DE4F055
:10133B00A3E4F022E590540C23C0E07415C0E0C088
:10134B0082C083021500E590540C23C0E07415C0D5
:10135B00E0C082C083021508E590540C23C0E074F2
:10136B0015C0E0C082C083021510E590540C23C059
:10137B00E07415C0E0C082C083021518EFC403905F
:10138B00150073900198E4F0A3E4F090019CE4F055
:10139B00A3E4F090019AE4F0A3E4F09001A0E4F050
:1013AB00A3E4F0900193E4F0A3E4F0D204538EF79E
:1013BB00438E0253890F438920758DCB758BCBD20E
:1013CB008E75985043E101D2AC229001DBE4F0A37F
:1013DB00E4F0D2A9538EF8438E045389F04389016C
:1013EB00758CD1758A20D28C900195E5A7F075A7E5
:1013FB001075A60075980375A30075A20075B183CF
:10140B00E5B130E6FB900195E0FF8FA7D2AF2290BC
:10141B00011BE0FFEFB4621090011CE0FFEFB46C16
:10142B0007780076A575EF127B017A01791B900185
:10143B0093E0FEA3E0FFEF2401FDEE3400FC120F5E
:10144B00E1900193E4F0A3E4F0229001D9EEF0A334
:10145B00EFF09001D9E0FEA3E0FFEF7802C333CEAB
:10146B0033CED8F9FF900114EEF0A3EFF0900114F6
:10147B00E0FEA3E0FFEF4E70F422C202300204D272
:10148B00818002C28190010AE4F0A3E4F0C201C2A0
:10149B0000900110E4F0A3E4F090010CE4F0A3E45D
:1014AB00F090010EE4F0A3E4F02275A900E5A95435
:1014BB0080FF7E00EF4E60F575A903E5A95480FF10
:1014CB007E00EF4E60F52275E84075BC1875B3C30E
:0D14DB0075DF4075BB1FD2EF221200932277
:041500005390F322EF
:0715080043900C5390F72201
:0715100043900C5390FB22F5
:1015180043900C2251492053746174653D310A008F
:1015280051492053746174653D320A005149205372
:10153800746174653D330A005149205374617465C0
:101548003D340A0051492053746174653D350A00E1
:1015580051492053746174653D360A00514920533E
:10156800746174653D450A00456E74657220536E5A
:101578006F6F7A650A004578697420536E6F6F7AC9
:03158800650A00F1
:00000001FF
